:020000040800F2
:1000000000C00020551B0008FB140008F514000870
:10001000FD140008FF14000801150008000000008E
:1000200000000000000000000000000003150008B0
:10003000051500080000000007150008F11400086D
:100040009D1B00089D1B00089D1B00089D1B0008B0
:100050009D1B00089D1B00089D1B00089D1B0008A0
:100060009D1B00089D1B00089D1B00089D1B000890
:100070009D1B00089D1B00089D1B00089D1B000880
:100080009D1B00089D1B00089D1B00089D1B000870
:100090009D1B00089D1B00089D1B00089D1B000860
:1000A0009D1B00089D1B00089D1B00089D1B000850
:1000B0009D1B00089D1B00089D1B00089D1B000840
:1000C0009D1B00089D1B00089D1B00089D1B000830
:1000D0009D1B00089D1B00089D1B00089D1B000820
:1000E0009D1B00089D1B00089D1B00089D1B000810
:1000F0009D1B00089D1B00089D1B00089D1B000800
:100100009D1B00089D1B00089D1B00089D1B0008EF
:100110009D1B00089D1B00089D1B00089D1B0008DF
:100120009D1B00089D1B00089D1B00089D1B0008CF
:1001300000000000000000000000000000000000BF
:1001400000000000000000000000000000000000AF
:10015000000000000000000000000000000000009F
:10016000000000000000000000000000000000008F
:10017000000000000000000000000000000000007F
:10018000000000000000000000000000000000006F
:10019000000000000000000000000000000000005F
:1001A000000000000000000000000000000000004F
:1001B000000000000000000000000000000000003F
:1001C000000000000000000000000000000000002F
:1001D000000000000000000000000000000000001F
:0401E0005FF8E0F1F3
:1001E40010B5054C237833B9044B13B10448AFF36D
:1001F40000800123237010BD1000002000000000C7
:10020400F81B000808B5034B1BB103490348AFF3BF
:10021400008008BD0000000014000020F81B000846
:100224007047704738B50E4B05461A784FF47A7309
:10023400B3FBF2F30B4A1068B0FBF3F000F0C0FC20
:10024400044658B90F2D09D8024629464FF0FF300D
:1002540000F086FC2046044B1D6038BD0120FCE7FD
:10026400040000200000002008000020074A08B510
:100274001368032043F01003136000F05FFC0F20A9
:10028400FFF7D0FFFFF7CDFF002008BD002002409C
:10029400034A044B11681B780B441360704700BF7A
:1002A4002C00002004000020014B1868704700BF98
:1002B4002C00002038B50446FFF7F6FF0546631C02
:1002C4001EBF044B1B78E418FFF7EEFF431BA34249
:1002D400FAD338BD0400002070B5FFF7E5FF0546EA
:1002E4002F4C236843F00103236023689B073BD50D
:1002F400236841F2883623F0F80343F08003236037
:10030400FFF7D2FF002305466360636813F00C0F08
:1003140032D1244B244A1A60244B1868FFF782FF19
:10032400054600283AD1FFF7BFFF0646236823F0AD
:1003340080732360236813F0007323D16360FFF795
:10034400B3FF0646236823F410232360236813F4C1
:1003540000331DD1226822F480222260626A42F0B6
:1003640080726262A36005E0FFF79EFF401B0228D3
:10037400BBD90325284670BDFFF796FF401BB0424A
:10038400C3D9F6E7FFF790FF801B0228D2D9F0E724
:10039400FFF78AFF801B6428D8D9EAE70125E9E73B
:1003A400001002400000002000127A000800002023
:1003B4002DE9F341054638B30368DB0710D42B68F5
:1003C4009F075ED42B68190700F195802B685A07A4
:1003D40000F1C180EB69002B40F02C81002029E062
:1003E400904C636803F00C03042B07D0636803F09C
:1003F4000C03082B0AD16368DE0307D523689C032A
:10040400DDD56B68002BDAD1012013E06B68B3F5FE
:10041400803F12D1236843F480332360FFF744FF05
:10042400064623689803CAD4FFF73EFF801B64285E
:10043400F7D9032002B0BDE8F0819BB9236823F407
:1004440080332360236823F480232360FFF72CFF89
:10045400064623689903B2D5FFF726FF801B64285C
:10046400F7D9E6E7B3F5A02F236803D143F480233B
:100474002360CFE723F480332360236823F48023AD
:10048400CBE7684C636813F00C0F07D0636803F084
:100494000C03082B10D16368DA030DD423689B077F
:1004A40002D52B69012BAFD123686A6923F0F803C5
:1004B40043EAC203236085E72A695B4B6AB10122E0
:1004C4001A60FFF7F1FE064623689F07ECD4FFF796
:1004D400EBFE801B0228F7D9ABE71A60FFF7E4FEB6
:1004E4000646236898077FF56DAFFFF7DDFE801B96
:1004F4000228F6D99DE7AA694A4E4B4BE2B1012284
:10050400C3F88024FFF7D0FE0446736A9B070DD519
:100514004FF4FA52454B1B68B3FBF2F3019300BF4F
:10052400019B5A1E0192002BF9D14FE7FFF7BCFE45
:10053400001B0228E9D97CE7C3F88024FFF7B4FE46
:100544000446736A9F077FF541AFFFF7ADFE001BBA
:100554000228F6D96DE7334CE369D80024D4012787
:10056400E36943F08053E361E36903F0805300934C
:10057400009B2F4E3368D90518D5EB68012B26D183
:10058400236A43F001032362FFF78EFE41F28838A9
:100594000646236A9B073FD5002F3FF41BAFE36950
:1005A40023F08053E36115E70027E2E7336843F45F
:1005B40080733360FFF778FE80463368DA05DCD455
:1005C400FFF772FEA0EB08006428F6D931E7ABB957
:1005D400236A41F2883823F001032362236A23F05B
:1005E40004032362FFF760FE0646236A9807D3D507
:1005F400FFF75AFE801B4045F7D91AE7052B236AFB
:1006040003D143F004032362BAE723F00103236216
:10061400236A23F00403B6E7FFF746FE801B404538
:10062400B7D906E700100240000042420000002053
:10063400007000402A4C626802F00C02082A3ED086
:100644000022022B274B1A662CD1FFF72DFE0646FB
:100654002368990120D42B6AB3F5803F05D16268E1
:10066400A96822F400320A436260696A62680B4333
:1006740022F474121343012263601A4B1A66FFF7C3
:1006840013FE054623689A013FF5A8AEFFF70CFE5A
:10069400401B0228F6D9CCE6FFF706FE801B022891
:1006A400D6D9C6E6FFF700FE054623689B017FF511
:1006B40095AEFFF7F9FD401B0228F6D9B9E6012BE8
:1006C4003FF4A2AE60682B6A00F480329A427FF451
:1006D4009BAE6B6A00F47010C01A18BF0120A9E623
:1006E40000100240000042420D4A536803F00C011E
:1006F400082912D10B48C3F38341DB03405C09D5BD
:100704005368094AC3F340435043084AD35CB0FBDF
:10071400F3F07047064B584370470348704700BFD7
:1007240000100240221C000800127A00201C00085D
:1007340000093D002DE9F0410D46044610B90120A1
:10074400BDE8F081444A136803F007038B4228D3C1
:1007540021688E0730D4CA0743D43F4A136803F094
:100764000703AB4265D822683C4D12F0040F6CD1EC
:10077400130706D56B68226923F4605343EAC20366
:100784006B60FFF7B1FF6B68354AC3F30313D35CA7
:10079400D840344B1860344B1868FFF743FD0020F1
:1007A400CEE7136823F007030B431360136803F0C9
:1007B40007038B42C3D1CBE7284B11F0040F1EBFB4
:1007C4005A6842F4E0625A60080742BF5A6842F429
:1007D40060525A605A68A06822F0F00202435A60DC
:1007E400B9E762681D4E012A33681AD113F4003F39
:1007F400A5D0736841F2883823F003031343736070
:10080400FFF752FD07467368626803F00C03B3EB0D
:10081400820FA2D0FFF748FDC01B4045F3D9032047
:100824008EE7022A02D113F0007FE1E713F0020FF2
:10083400DEE7136823F007032B431360136803F008
:100844000703AB427FF47BAF8DE76B68E16823F469
:10085400E0630B436B608BE7002002400010024012
:10086400101C0008000000200800002003682DE987
:10087400F3410546D80721D5364CE369D9002BD47A
:100884000126E36943F08053E361E36903F0805395
:100894000193019B304F3B68DA051FD5236A6A68D0
:1008A40013F440732ED1236A6A6823F4407313430C
:1008B40023621EB1E36923F08053E3612A68910740
:1008C40006D52449A8684B6823F4404303434B608E
:1008D400D30636D4002012E00026DBE73B6843F45D
:1008E40080733B60FFF7E0FC80463B68DB05D5D4B2
:1008F400FFF7DAFCA0EB08006428F6D9032002B065
:10090400BDE8F08102F440729A42CCD00120134A2F
:10091400236AC2F84004002023F44071DF07C2F8C0
:1009240040042162BFD5FFF7BFFC41F28838074677
:10093400236A9807B7D4FFF7B7FCC01B4045F7D923
:10094400DCE7044A6969536823F480030B4353606A
:10095400C0E700BF001002400070004000004242A7
:100964002DE9F74F00244FF00F0E2646DFF89CC107
:10097400674B00F104080A6832FA06F502D103B0A5
:10098400BDE8F08F012505FA06F702EA070537EA04
:1009940002027ED14A68032A07D8013A022A00F2E9
:1009A4008C80DFE802F09A9FA500122A00F09D8057
:1009B40071D8112A00F09380FF2D94BF8146C1465F
:1009C4004FEA8602D9F8007088BF203A0EFA02FA7C
:1009D40027EA0A0704FA02F21743C9F80070D1F8AB
:1009E400049019F0805F54D0DCF8182026F0030737
:1009F40042F00102CCF81820DCF8182007F18047F7
:100A040002F00102019207F5803706F0030A019A09
:100A14004FEA8A0ABA680EFA0AFB22EA0B0B3D4A2D
:100A2400904269D002F58062904267D002F58062FC
:100A3400904265D002F58062904263D002F58062F4
:100A4400904261D002F58062904214BF06220522D2
:100A540002FA0AF242EA0B02BA609A6819F4801F99
:100A640014BF2A43AA439A60DA6819F4001F14BF1A
:100A74002A43AA43DA605A6819F4003F14BF2A4390
:100A8400AA435A601A6819F4803F14BF2A43AA4340
:100A94001A6001366FE7DFF880904A450DD015D80B
:100AA400A9F580194A4508D009F570294A4504D0AA
:100AB400A9F580194A457FF47FAF8A68D2B1012A2B
:100AC4004FF008040CBF0761476175E7DFF84C90ED
:100AD4004A45F2D009F58039ECE7CC686CE7CC687C
:100AE400043469E7CC68083466E7CC680C3463E7FF
:100AF400002461E704245FE70022A9E70122A7E7B5
:100B04000222A5E70322A3E70422A1E70010024082
:100B140000040140000801400000221000003110D0
:100B24000AB1016170470904FBE7C36801EA0302E3
:100B340021EA030141EA02410161704707490302C6
:100B4400CA6803F4E06322F4E0621204120C134353
:100B540043F0BF6343F40033CB60704700ED00E023
:100B6400154B30B5DC68C4F30224C4F10703251D1A
:100B7400042B28BF0423062D4FF0FF3594BF002417
:100B8400033C05FA03F321EA0303A54022EA050224
:100B9400A340002843EA0203ACBF00F16040074AC7
:100BA4004FEA0313DBB2ABBF00F5614000F00F0066
:100BB40080F80033135430BD00ED00E014ED00E084
:100BC4000138B0F1807F0BD24FF0E023F021054AC9
:100BD400586182F823100020072298611A61704737
:100BE4000120704700ED00E0114AD36813F01003B0
:100BF40005D01049CB6943F00203CB611023D268BE
:100C0400500706D50B4943F00403CA6942F00102B8
:100C1400CA61074AD169C90708D50648C16941F0C4
:100C24000401C161D16921F00101D161D360704730
:100C34000020024030000020064B186910F08000AC
:100C440007D0054A5A6002F188325A601869C0F325
:100C5400C01070470020024023016745034A00206A
:100C6400136943F080031361704700BF0020024002
:100C740070B50546FFF718FB0646114CE368D80724
:100C840012D4E368990644BF2023E360E368DA06DC
:100C940006D4E369DB0703D4E06810F0040007D04E
:100CA400FFF7A2FF012003E06B1CE7D00DB903207E
:100CB40070BDFFF7F9FA801BA842DFD9F7E700BF40
:100CC400002002402DE9F84FDFF894A01F469AF85F
:100CD40018300546012B884691463FD001234CF23B
:100CE40050308AF81830FFF7C3FF90BB012D03D0B2
:100CF400022D14BF0425022500263346DFF864B014
:100D04003401C4F12001A4F1200207FA01F129FA07
:100D140004F4CAF81C300C4327FA02F21443DBF83B
:100D24001020A4B242F00102CBF810204CF2503053
:100D340028F81640FFF79CFFDBF8102022F0010290
:100D4400CBF8102028B90136F2B295424FF00003D7
:100D5400D6D800238AF81830BDE8F88F0220FBE7C4
:100D640030000020002002400022064BDA61064BCE
:100D74001A6942F002021A6158611A6942F040028B
:100D84001A61704730000020002002402DE9F04134
:100D9400264F05463B7E8846012B44D001243C76F1
:100DA40003684CF25030022B1AD1FFF761FF20B1D7
:100DB400012000233B76BDE8F0811D4CF8612369D6
:100DC4004CF2503043F004032361236943F04003A1
:100DD4002361FFF74DFF236923F004032361E8E750
:100DE400FFF746FF0028E3D14FF0FF33C8F8003087
:100DF4002046AE680E4CD5E9023203EBC223B3425F
:100E0400D7D93046FFF7B0FF4CF25030FFF730FF30
:100E1400236923F00203236110B1C8F80060C8E716
:100E240006F50066E7E70220C5E700BF30000020B2
:100E3400002002402DE9F3471F46894690460446A8
:100E4400FFF732FA0A9D3D442D1AFFF72DFA824628
:100E5400254B1E68C6F3CB366E4301962268936811
:100E640039EA03030CBF01230023434501D10020C9
:100E74002EE07B1CF3D0FFF717FAA0EB0A00A84280
:100E840029D323685A6822F0E0025A606268B2F5F6
:100E9400827F0AD1A268B2F5004F02D0B2F5806F0A
:100EA40003D11A6822F040021A60A26AB2F5005F08
:100EB40007D11A6822F400521A601A6842F40052E8
:100EC4001A60012384F851300023032084F8503041
:100ED40002B0BDE8F087019A019B002A03F1FF33B9
:100EE40008BF15460193B9E70000002073B50B460F
:100EF40000920D461646022101220446FFF79AFF8E
:100F0400024628B1636D032043F02003636507E0C4
:100F14002B46802120460096FFF78CFF0028F1D154
:100F240002B070BD37B50B4641680446B1F5827F07
:100F340018D18168B1F5004F02D0B1F5806F11D19D
:100F44002568B1F5806F286820F04000286009D139
:100F54000092012100222046FFF76CFF30B90020E7
:100F640003B030BD009280210022F4E7636D0320BA
:100F740043F020036365F3E710B50446002851D01D
:100F8400436A002B4AD14268B2F5827F00D0C36124
:100F94000023A36294F8513003F0FF0223B92046E2
:100FA40084F8502000F058FC0223226884F8513061
:100FB4001368A06823F040031360636800F40440DE
:100FC40003F482730343E068A16900F400600343FF
:100FD400206900F002000343606900F0010003434C
:100FE40001F400700343E069090C00F03800034386
:100FF400206A01F0040100F080000343A06A00F4B9
:101004000050034313605160D369002023F400634C
:10101400D3610123606584F8513010BD0023C0E919
:101024000433B5E70120F8E72DE9F74304461F46EA
:101034000D469046FFF738F994F851308146012B5C
:10104400D8B240F09F80002D74D0B8F1000F71D059
:1010540094F85030012B00F09580032384F851302C
:1010640000236365C4E91033A4F83680A363A3871F
:10107400E387A3682668B3F5004F84F8500025631E
:10108400A4F8348007D1336823F040033360336815
:1010940043F4804333603368E2685B065EBF3368C1
:1010A40043F040033360B2F5006F636845D113B178
:1010B400B8F1010F07D135F8023BF3602563E38EE5
:1010C400013B9BB2E386E38E9BB2D3B94A463946D1
:1010D4002046FFF70BFF002851D1A36833B90193D1
:1010E4002368DA6801929B680193019B012384F8C9
:1010F40051300023606D84F85030C01A18BF0120AD
:1011040018E022689368980705D5236B33F8021B0F
:10111400D1602363D3E7FFF7C7F8A0EB0900B84217
:10112400D1D3791CCFD0012384F85130002303207C
:1011340084F8503003B0BDE8F08313B1B8F1010F67
:1011440008D12B783373236B01332363E38E013B84
:101154009BB2E386E38E9BB2002BB7D023689A68D8
:10116400920703D5226B12781A73ECE7FFF79CF809
:10117400A0EB0900B842EDD37B1CEBD0D3E72023CE
:101184006365AAE70220D5E72DE9F74304460D4637
:1011940091461E46DDF82880FFF786F894F8513012
:1011A4000746012B6268D9B20AD0B2F5827F40F0BB
:1011B400E580A368002B40F0E180042940F0DE8044
:1011C400002D4BD0B9F1000F48D0002E46D094F832
:1011D4005030012B00F0D280012384F8503094F871
:1011E4005130C4F83890042B1CBF052384F85130C7
:1011F40000236365C4E910332368E687E68619682B
:10120400A687490658BF1968256358BF41F04001B5
:10121400A68658BF1960E168B1F5006F55D10AB1CF
:10122400012E07D135F8022BDA60E38E2563013BEA
:101234009BB2E3860125E38E9BB28BB9E38F9BB20D
:1012440073B93A4641462046FFF750FE002800F0A5
:10125400818020236365002384F85030012031E02D
:1012640021688B689A070DD5E38E9BB253B145B1C3
:10127400236B33F8022BCA602363E38E013B9BB2DA
:10128400E38600258A6812F001020CD0E38F9BB23A
:101294004BB11546C968A36B23F8021BA363E38F04
:1012A400013B9BB2E387FEF7FFFFC01B4045C2D35F
:1012B400B8F1FF3FBFD0012384F85130002303204D
:1012C40084F8503003B0BDE8F0830AB1012E08D190
:1012D4002A781A73236B01332363E38E013B9BB299
:1012E400E38601252DE0226893689B070ED5E38EE3
:1012F4009BB25BB14DB1236B1B781373236B01332A
:101304002363E38E013B9BB2E38600252268916848
:1013140011F001010DD0E38F9BB253B10D46D26899
:10132400A36B1A70A36B0133A363E38F013B9BB2DE
:10133400E387FEF7B9FFC01B404502D3B8F1FF3F76
:10134400B9D1E38E9BB2002BCDD1E38F9BB2002B9E
:10135400C9D176E7A36833B901932368DA680192A7
:101364009B680193019B012384F851300023606D35
:1013740084F85030C01A18BF0120A3E70220A1E767
:101384002DE9F7431E4690F851300446012B894657
:101394001746DDB204D00225284603B0BDE8F08329
:1013A4004368B3F5827F0BD183684BB9042380F87B
:1013B4005130134600960A46FFF7E6FE0546EBE772
:1013C400FEF772FF8046B9F1000FE5D0002FE3D09D
:1013D40094F85030012BDED00123002584F85030DE
:1013E4000423A26884F85130B2F5004F6565C4E95E
:1013F4001055E7872368C4F83890A7872563A58626
:10140400E58607D11A6822F040021A601A6822F4AD
:1014140080421A601A6855065EBF1A6842F040029C
:101424001A60E368F3B1E38F9BB2FBB123689A6857
:10143400D2073CD5DA68A36B23F8022BA363E38FAE
:10144400013B9BB2E387EEE723689A68D0071ED579
:101454001B7BA26B1370A36B0133A363E38F013B6C
:101464009BB2E387E38F9BB2002BEDD1424631461A
:101474002046FFF757FD18BB012384F851300023A1
:10148400656D84F85030ED1A18BF012584E7FEF726
:101494000BFFA0EB0800B042E4D3711CE2D001239F
:1014A40084F851300023032584F8503074E7FEF7A4
:1014B400FBFEA0EB0800B042B5D3731CB3D0EEE73B
:1014C40020236365D8E70000BFF34F8F0549064B1F
:1014D400CA6802F4E0621343CB60BFF34F8F00BFCE
:1014E400FDE700BF00ED00E00400FA05FEF7D0BE02
:1014F40008B5FFF7E9FFFEE7FEE7FEE7FEE7704702
:101504007047704708B572B6FFF7DEFF10B596B0A6
:10151400142200210EA800F040FB1422002101A88F
:1015240000F03BFB182200210DEB020000F035FB1C
:1015340002244FF480330122CDE91343CDE90C2377
:101544004FF4E0130CA810921593FEF731FF08B185
:10155400FFF7D8FF0F23CDE901344FF480630390E4
:10156400CDE90430214601A8FFF7E4F80028EFD1C3
:1015740010230B9006A80693FFF778F90028E7D10B
:1015840016B010BD2DE9F04788B0FEF76FFEFFF7E7
:10159400BDFF6420FEF78EFE0023069303F1804313
:1015A40003F504339A69614842F010029A619A691A
:1015B40004A902F010020192019A9A69DFF870817D
:1015C40042F004029A619A6902F004020292029AB9
:1015D4009A6942F020029A619B694FF4004203F039
:1015E40020030393039B0123CDE9042302230793E0
:1015F400FFF7B6F900F00CF910224E480DEB02018A
:1016040000F0EEF9049B43451ED19DF81C30012BDC
:101614001AD1059B013BB3F5703F09D2FFF70CFBD0
:1016240030B90599444800F091F808B3FFF716FB68
:1016340014243E4D6420FEF73DFE4FF4004128463D
:10164400FFF773FA013CF5D13B4C236803F1604387
:10165400B3F5404F55D904F1605404F55044C82003
:10166400FEF728FE4FF400412046FFF75EFAF6E746
:10167400059C314F314EDFF8C890DFF8B0A01CBB99
:10168400FFF7ECFA05992C4800F0A8F8BDF81830DB
:101694008342CDD12B4D4FF480522946254800F08A
:1016A4009FF960B92B68434509D122482C7300F097
:1016B40021FA4FF4805229461E4800F0C3F9322023
:1016C400FEF7F8FDFFF700FFB4F5006F254628BFCD
:1016D4004FF4006549463046AAB200F081F900286B
:1016E400A4D12A464946384600F047F800289DD13F
:1016F4004FF4004150462E442F44641BFFF715FA63
:10170400BDE72768666872B64FF0E02300251D61C7
:10171400FEF7E2FD0C4B9C6087F3088885F3148880
:10172400BFF36F8F62B6B047FEE700BF0010014001
:101734003141544F00F01F000040000800701E00AB
:10174400501000205000002000ED00E07FB54FF065
:10175400FF320023CDE90123012301F2FF71C90AFD
:10176400CDE90330059102A801A9FFF70FFB00386A
:1017740018BF012007B05DF804FB2DE9F8430546C6
:101784000E461746002401F1010822F001094C45D8
:101794000FD1BC421FD2325D0023012042F47F42AC
:1017A4006119FFF78FFA003818BF01204000BDE827
:1017B400F88318F8013C98F80020012043EA02223B
:1017C40061190023FFF77EFA08F1020808B9023410
:1017D400DDE70120EBE70020E9E7000002460144D1
:1017E4004FF6FF7030B5094D8A4200D130BD082450
:1017F40012F8013B584040F300032B4083EA5003A6
:1018040098B2631E13F0FF04F5D1EDE701A0FFFFCA
:1018140008B54FF482730E480E4A4FF40071C0E9C4
:10182400002300231022C0E90233C0E90433C0E9D5
:10183400083383620A23C0E90612C362FFF79CFBE4
:1018440008B1FFF75FFEBDE8084000F09FB800BF95
:10185400501800200030014030B51024054687B0F0
:101864002246002102A800F098F92A68194B9A42EE
:101874002ED103F560439A69032542F480529A619C
:101884009A69154802F480520092009A9A6902A952
:1018940042F004029A619B69A02203F004030193BD
:1018A400019B02230595CDE90223FFF759F8002394
:1018B40040210948CDE9021302A90493FFF750F827
:1018C4000123054802A9029403930595FFF748F8FC
:1018D40007B030BD0030014000080140062337B591
:1018E4000B4D0022284610218DF80730FFF718F918
:1018F40032230DF1070101220648FFF795FB044648
:10190400012228461021FFF70BF9204603B030BD11
:101914000008014050180020F7B50546FEF7C4FC46
:101924000446184E184F05230022102130468DF826
:1019340006308DF80720FFF7F3F8322301220DF16A
:1019440006013846FFF770FB322301220DF107012F
:101954003846FFF715FD304601221021FFF7E0F865
:101964009DF8073013F0010001D103B0F0BDFEF77C
:101974009BFC001BA84203D80120FEF79BFCD2E786
:101984000320F2E7000801405018002037B5012277
:1019940010211148FFF7C4F8FFF7A0FF0446C0B9AF
:1019A4000125024610210C48ADF80450FFF7B8F8A1
:1019B400022201A964230948FFF736FB04462A469C
:1019C40010210548FFF7ACF81CB96420FFF7A4FF09
:1019D4000446204603B030BD0008014050180020E2
:1019E40073B515460E4639B332B303238DF804306C
:1019F400030C40BA00221021ADF806000F488DF800
:101A04000530FFF78DF8042264230D480DEB020125
:101A1400FFF70AFB044638B92A463146084805F15F
:101A24006403FFF7ADFC0446012210210348FFF7CD
:101A340077F8204602B070BD0124FAE7000801409F
:101A4400501800202DE9F74F064693460F4600290B
:101A54004AD0002A48D04FF0020ADFF89080DFF81D
:101A64009090F5B2C5F58075ADB25D4528BF5D4671
:101A7400FFF734FF044640BB330C024610214046B6
:101A84008DF8053073BAADF806308DF804A0FFF771
:101A940047F80422642348460DEB0201FFF7C4FA19
:101AA400044640B905F164032A46394648469BB2C8
:101AB400FFF7BAFA0446012210214046FFF730F836
:101AC4001CB96420FFF728FF04462E442F44ABEBD7
:101AD40005051FFA85FBBBF1000F01D0002CC0D017
:101AE400204603B0BDE8F08F0124F9E70008014067
:101AF4005018002037B50546FFF7F0FE044600BB3A
:101B040020230246102110488DF804302B0C6DBAA6
:101B14008DF80530ADF80650FFF702F8042264236F
:101B24000DEB02010948FFF77FFA04460122102158
:101B34000548FEF7F5FF24B94FF47A60FFF7ECFE91
:101B44000446204603B030BD000801405018002070
:101B5400FEF766FB0B480C490C4A002302E0D458FC
:101B6400C4500433C4188C42F9D3094A094C0023E5
:101B740001E013600432A242FBD300F017F8FFF730
:101B840001FD7047000000200C0000203C1C0008F0
:101B940010000020A8180020FEE7034602449342E8
:101BA40000D1704703F8011BF9E7000070B5002667
:101BB4000C4D0D4C641BA410A64209D100F01AF878
:101BC40000260A4D0A4C641BA410A64205D170BD20
:101BD40055F8043B98470136EEE755F8043B98471F
:101BE4000136F2E7341C0008341C0008341C0008D9
:101BF400381C0008F8B500BFF8BC08BC9E46704706
:0C1C0400F8B500BFF8BC08BC9E46704755
:101C1000000000000000000001020304060708099C
:101C2000010202030405060708090A0B0C0D0E0F3A
:041C30001010000090
:041C34000902000899
:041C3800E5010008BA
:0C1C3C0000127A000100000010000000FF
:0400000508001B557F
:020000040800F2
:1040000000C0002039AC000845AA000847AA0008F3
:1040100049AA00084BAA00084DAA000800000000A9
:10402000000000000000000000000000B19A00083D
:104030004FAA000800000000419B0008F59400080A
:1040400081AC000881AC000881AC000881AC00089C
:1040500081AC000881AC000881AC000881AC00088C
:1040600081AC000881AC000881AC000881AC00087C
:1040700081AC000881AC000881AC000851AA00089E
:1040800081AC000881AC000881AC000881AC00085C
:104090005DAA000881AC000881AC000881AC000872
:1040A00081AC000881AC000881AC000881AC00083C
:1040B00081AC000881AC000869AA000881AC000846
:1040C00081AC000881AC000881AC000881AC00081C
:1040D00081AC000875AA000881AC000881AC00081A
:1040E00081AC000881AC000881AC000881AC0008FC
:1040F00081AC000881AC000881AC000881AC0008EC
:1041000081AC000881AC000881AC000881AC0008DB
:1041100081AC000881AC000881AC000881AC0008CB
:1041200081AC000881AC000881AC000881AC0008BB
:10413000000000000000000000000000000000007F
:10414000000000000000000000000000000000006F
:10415000000000000000000000000000000000005F
:10416000000000000000000000000000000000004F
:10417000000000000000000000000000000000003F
:10418000000000000000000000000000000000002F
:10419000000000000000000000000000000000001F
:1041A000000000000000000000000000000000000F
:1041B00000000000000000000000000000000000FF
:1041C00000000000000000000000000000000000EF
:1041D00000000000000000000000000000000000DF
:0441E0005FF8E0F1B3
:1041F00010B5054C237833B9044B13B10448AFF321
:1042000000800123237010BDEC010020000000009D
:10421000180F010808B5034B1BB103490348AFF35E
:10422000008008BD00000000F0010020180F010808
:10423000002902D0B0FBF1F0704708B14FF0FF3019
:1042400000F008B80029F8D00246B0FBF1F000FBFE
:1042500011217047704700BF034613F8012B002A55
:10426000FBD1181A013870477047704790F83D30FD
:10427000012B28D1022380F83D300368DA6842F030
:104280000102DA60114A934212D002F500629342B1
:104290000ED0B3F1804F0BD0A2F59832934207D0E5
:1042A00002F58062934203D002F58062934204D10A
:1042B0009A6802F00702062A03D01A6842F0010247
:1042C0001A60002070470120704700BF002C014099
:1042D0007047704770477047036870B5DD681E69A6
:1042E0000446B1070DD5AA070BD56FF002021A617B
:1042F000012202779B699B0769D0FFF7EAFF002341
:104300002377710710D56A070ED56FF00402236872
:1043100020461A61022222779B6913F4407F5CD009
:10432000FFF7D7FF0023237733070FD528070DD5D5
:104330006FF00802236820461A6104222277DB69A5
:10434000990750D0FFF7C5FF00232377F20610D559
:10435000EB060ED56FF01002236820461A61082282
:104360002277DB6913F4407F43D0FFF7B2FF0023CD
:104370002377F00708D5E90706D56FF00102236817
:1043800020461A6106F004F8320608D52B0606D539
:104390006FF08002236820461A6100F09CF87006D6
:1043A00008D5690606D56FF04002236820461A61D9
:1043B000FFF791FFB20622D5AB0620D56FF02002A1
:1043C00023682046BDE870401A6100F083B8FFF70B
:1043D0007FFF2046FFF77EFF91E7FFF779FF20463A
:1043E000FFF778FF9EE7FFF773FF2046FFF772FFA6
:1043F000AAE7FFF76DFF2046FFF76CFFB7E770BD38
:104400001D4A0368904212D002F5006290420ED01D
:10441000B0F1804F0BD0A2F59832904207D002F550
:104420008062904203D002F58062904207D14A68D0
:1044300023F070031343CA6823F4407313434A699B
:1044400023F08003134303608B68C3620B688362AD
:10445000094B984203D003F50063984201D10B69E0
:104460000363012343610369DB0742BF036923F050
:1044700001030361704700BF002C014010B50446E2
:1044800030B390F83D3003F0FF021BB980F83C20B8
:10449000FFF7EBFE0223206884F83D30211DFFF773
:1044A000AFFF0123002084F8463084F83E3084F8C2
:1044B0003F3084F8403084F8413084F8423084F84A
:1044C000433084F8443084F8453084F83D3010BDE2
:1044D0000120FCE770477047F8B50446E0B190F85A
:1044E000913203F0FF021BB980F8902205F0FEFB29
:1044F000032384F8913200232546637155F8040B99
:1045000000F09EFE95E80E00206800F089FE01464E
:1045100028B1022384F8913201252846F8BD20688D
:1045200000F098FE0028F4D102460127267904F114
:104530001003C1B28E4203F1280318D800210A46A5
:1045400004F5A873C8B2864203F128031BD895E886
:104550000E00206800F080FE05460028D9D1012316
:104560006073206884F8913201F02CF9D5E743E9B3
:10457000062203F8277C03F8281C03F8252C43F8AF
:10458000102C0130D5E743E9062203F8272C03F865
:10459000280C03F8252C43F8102C0131D2E738B54C
:1045A00090F890320446012B10D0012580F89052EB
:1045B000006800F03CFE2946204605F09EFC20687D
:1045C00001F0FEF8002084F8900238BD0220FCE7DC
:1045D00010B590F890220446012A0AD001224173B6
:1045E00080F89022006801F0E5F8002084F890023D
:1045F00010BD0220FCE700002DE9F04F044685B015
:10460000006801F0E1F810F4004500F04F8428251F
:10461000C64E2068B0F844301F0402D405B0BDE88F
:10462000F08FB0F8443013F00F0799B240F0C0801B
:1046300011F0100126D103889BB2334043F40043AC
:104640000380B0F85030227C9BB203EBC20300EB36
:104650004303B3F80434626AC3F309031A44E36200
:104660002046626205F071FB637B002BD1D0A26A09
:104670002168002ACDD1637B43F08003A1F84C3040
:104680006273C6E70788BBB217F4006721D0B0F8A1
:10469000503094F850219BB203EBC20300EB43036C
:1046A000B3F80C34B4F85621C3F30903C4F86C31E1
:1046B00004F5267101F0D3FA22682046138823F00E
:1046C00070031B051B0D43F08003138005F02EFBC8
:1046D0009FE719049DD5038823F070031B051B0D6C
:1046E00043F080030380B0F8503094F850219BB21F
:1046F00003EBC20300EB4303B3F80C34C3F3090329
:10470000C4F86C318BB1D4F8641171B1B4F856218E
:1047100001F0A5FAD4F86431D4F86C213946134479
:104720002046C4F8643105F007FB21680A8893B27B
:1047300012053FF56EAF03F44053B3F5405F3FF40D
:1047400068AFB1F8502001F20C4092B2835AC3F323
:1047500009038352D4F860313E2B1DD95F09DB0673
:10476000835A08BF07F1FF379BB243EA87236FEAFA
:1047700043436FEA53439BB283520B8823F4804335
:1047800023F070031B041B0C83F4405343F40043D9
:1047900043F080030B803CE70BB9835AE7E75F08DF
:1047A000DB07835A48BF01379BB243EA8723E2E71E
:1047B00030F8273019041FFA83F840F1F68030F8FA
:1047C000273005FB074123F070031B051B0D43F049
:1047D000800320F8273091F85C3100F5806EBBB97A
:1047E000B0F8503091F850219BB2063303EBC2036E
:1047F0003EF81390C9F30909B9F1000F00F0BA802F
:104800004B46B1F85621D1F8641101F028FAB1E015
:1048100091F8533191F85021022B40F08980B0F883
:1048200050904FEAC20B1FFA89F918F4804AD1F868
:104830006831D94408F0400C3CD009F102093EF837
:104840001990C9F30909994513D90023C1F86831B2
:1048500030F8223023F4804323F070031B041B0C38
:1048600083F4005343F4004343F0800320F82230E4
:1048700005E0A3EB0903C1F86831002BE8D0BCF1D7
:10488000000F0DD030F8223023F4E04323F0700302
:104890001B041B0C43F4004343F0C00320F82230F8
:1048A000B9F1000F66D0282101FB07414B46B1F852
:1048B0005821A8E709F106093EF81990C9F309093A
:1048C000994512D9C1F868A130F8223023F4804309
:1048D00023F070031B041B0C83F4005343F40043C8
:1048E00043F0800320F8223005E0A3EB0903C1F870
:1048F0006831002BE8D0BCF1000F0DD130F8223028
:1049000023F4E04323F070031B041B0C43F4004327
:1049100043F0C00320F82230B9F1000F2AD028213B
:1049200001FB07414B46B1F85A216CE70F8FFFFF9F
:1049300030F8223023F4E04323F070031B041B0CF7
:1049400043F4004343F0C00320F8223091F8503183
:1049500030F82320DB0012F4804FB0F8502092B2E0
:1049600054D0023213443EF81390C9F30909B9F147
:10497000000F9BD105FB07F16318D3F86C214A4463
:10498000C3F86C21D3F864214A44C3F86421D3F8F6
:1049900068211AB1D3F86031994541D205FB07432C
:1049A000204693F8501105F0C7F918F0800F2068E1
:1049B0003FF42FAE30F8273005FB07FC9BB23340A5
:1049C00043F4004320F8273004EB0C03DA7C012A7F
:1049D00056D1002107FB0552A1501A7F92B318F05F
:1049E00040085A7C36D012BBB0F850201B7C92B2E3
:1049F0001B0100F2044010441A5AC2F309021A5271
:104A00001A5A92B242F400421A521BE00632134480
:104A10003EF81390C9F30909B9F1000FAAD081E754
:104A200001F5A8712068214400F0E4FEBDE7012AE9
:104A300008D1B0F850201B7C92B200F204401B0158
:104A400010441952282303FB0743197C204605F024
:104A50007CF9DEE53AB9B0F850201B7C92B21B011C
:104A600000F20C40C7E7012AECD1B0F850201B7CC3
:104A700092B200F20C401B01104423F80080E1E7E1
:104A8000197C18F4807E9A6A4FEAC10A00F58069A1
:104A90001BD1B0F85070BFB25744023739F81770C5
:104AA000C7F30907974202D3C3F828E0CEE7D21B29
:104AB0009A625A6A0CF110013A445A62DA6A214445
:104AC0003A44DA6200F096FEA3E5B0F850C018F060
:104AD000400E1FFA8CFCD44408F4804800F0F480A7
:104AE0000CF1020C39F81CC01FFA88F8CCF3090C41
:104AF00094452CBF0022A2EB0C029A62002A5BD1E3
:104B0000282303FB07435B7C002B41D1B0F85020E6
:104B100000F2044C92B20B0194443CF80320C2F31F
:104B200009022CF803203CF803206FEA42426FEAA6
:104B3000524292B22CF80320B0F8502000F20C4000
:104B400092B21044C25AC2F30902C252C25A6FEA68
:104B500042426FEA524292B2C252204605F0F5F844
:104B6000B8F1000F00F0F480282303FB074322680C
:104B7000197C32F8213023F4E04323F070031B0446
:104B80001B0C43F4404343F0800322F82130DFE064
:104B9000012BE2D1B0F850E000F2044C1FFA8EFE77
:104BA000F4440B012CF80320B0F850C000F20C4084
:104BB0001FFA8CFC6044CFE7B8F1000F0DD030F83D
:104BC000212022F4E04222F070021204120C42F47E
:104BD000404242F0800220F821204FF0280808FBD4
:104BE000074898F83420012A40F0B280D8F82420F1
:104BF00002EB0C0EC8F824E0DA6A6244DA62D8F8F4
:104C00003030D8F82020934235D39B1AC8F8303082
:104C1000282303FB074393F811C093B2BCF1000FA4
:104C200045D1B0F8508000F2044C1FFA88F8C44413
:104C300009013CF801803E2AC8F309082CF80180DC
:104C400025D94FEA5218D2063CF8012008BF08F1D6
:104C5000FF3892B242EA88226FEA42426FEA524239
:104C600092B22CF80120282202FB0742128B7146D7
:104C700000F0B0FD6CE01BB9624688F83430C7E73D
:104C8000002288F83420C8F830201A46C0E712B94C
:104C90003CF80120E0E74FEA5208D2073CF8012037
:104CA00048BF08F1010892B242EA8822D8E7BCF175
:104CB000010FD8D1B0F850C000F204421FFA8CFCAA
:104CC000624409015352CEE70CF1060C39F81CC0BE
:104CD0001FFA88F8CCF3090C94458CBF7246A2EBFE
:104CE0000C029A62002A5DD1282303FB07435B7CF8
:104CF000002B43D1B0F8502000F2044C92B20B01CB
:104D000094443CF80320C2F309022CF803203CF839
:104D100003206FEA42426FEA524292B22CF803201B
:104D2000B0F8502000F20C4092B21044C25AC2F3C4
:104D30000902C252C25A6FEA42426FEA524292B22A
:104D4000C252204605F001F8B8F1000F3FF40CAF55
:104D5000282303FB07432268197C32F8213023F40F
:104D6000E04323F040031B041B0C83F0300343F4A7
:104D7000004343F0800322F821304AE4012BE0D1C4
:104D8000B0F850E000F2044C1FFA8EFEF4440B0120
:104D90002CF80320B0F850C000F20C401FFA8CFC35
:104DA0006044CDE7B8F1000F0DD130F8212022F496
:104DB000E04222F070021204120C42F4404242F02F
:104DC000800220F821204FF0280808FB074898F8B7
:104DD0003420012ABCD1D8F8242002EB0C0EC8F8EC
:104DE00024E0DA6A6244DA62D8F83030D8F8202059
:104DF000934232D39B1AC8F83030282303FB074371
:104E000093F811C093B2BCF1000F42D1B0F85080BA
:104E100000F20C4C1FFA88F8C44409013CF80180E8
:104E20003E2AC8F309082CF8018022D94FEA52180B
:104E3000D2063CF8012008BF08F1FF3892B242EADE
:104E400088226FEA42426FEA524292B22CF8012065
:104E5000282202FB0742528B09E71BB9624688F8F9
:104E60003430CAE70022C8F8302088F834201A46C7
:104E7000C3E712B93CF80120E3E74FEA5208D20732
:104E80003CF8012048BF08F1010892B242EA8822AA
:104E9000DBE7BCF1010FDBD1B0F8502000F20C4C85
:104EA00092B294440A012CF80230D1E7460512D59B
:104EB00022682046B2F8443023F480631B041B0CA4
:104EC000A2F8443004F04DFF2946204605B0BDE865
:104ED000F04FFFF77DBB41040AD52268B2F8443099
:104EE00023F480431B041B0CA2F84430FFF796BB4D
:104EF000820405D52268B2F8443023F40053F1E768
:104F0000C30419D522682046B2F8403023F00403C8
:104F10001B041B0CA2F84030B2F8403023F0080309
:104F20001B041B0CA2F8403004F03EFF2268B2F8CC
:104F3000443023F48053D5E7070548D568462368F5
:104F4000064619461A4603F1200532F8047B9542BD
:104F500026F8027BF9D1B3F8402092B242F0010268
:104F6000A3F84020B3F8402022F001021204120CF2
:104F7000A3F84020B3F844205605FBD5B3F84420ED
:104F800022F480621204120CA3F8442030F8022BA1
:104F900021F8042B8D42F9D1B3F84020204692B27B
:104FA00042F00802A3F84020B3F8442022F4006243
:104FB0001204120CA3F84420B3F8402092B242F03D
:104FC0000402A3F8402004F0DFFEFFF727BB8205B0
:104FD0000DD522682046B2F8443023F400731B0438
:104FE0001B0CA2F8443004F0B8FEFFF717BBC30552
:104FF0007FF514AB2268B2F8443023F4807371E774
:1050000070B52824054601F00700444311F0800FD5
:1050100014BF04F1100104F5A87105EB040615BFD7
:1050200001240024747486F8514114BF49194919A8
:10503000022BCB7008BF0023087008BF0B710A61F8
:1050400095F89032012B09D00123286885F8903219
:1050500000F014F9002085F8900270BD0220FCE7F2
:10506000282301F00702534311F0800F10B50446C6
:1050700018BF03F1100118440BBF03F5A8710123F9
:10508000002309190ABF0919437480F851310A70C5
:1050900094F89032012B09D00123206884F89032D3
:1050A00000F04CFA002084F8900210BD0220FCE7CA
:1050B00070B52824002601F007014C43051985F836
:1050C000501104F5A8710144C5E95923C5F86C6174
:1050D00085F85161006800F08DFB304670BD2823D3
:1050E00001F0070103FB0100D0F86C01704770B5B7
:1050F000282501F007014D4344190026C4E909237E
:105100000122217405F11001014484F83420236345
:10511000E6626274006800F06DFB304670BD38B521
:10512000037901F00705AB4204462AD311F0800F42
:105130004FF028031CD001226B4303F110010344FC
:1051400001445A7401230D708B7094F890229A4296
:1051500019D0206884F8903200F0C3FA25B920688D
:1051600004F5267100F034FB002084F8900238BD6D
:1051700000224B4303F5A8710344014483F85121F5
:10518000E0E70120F3E70220F1E738B5027901F00A
:105190000F039A42044626D3282301F00702534303
:1051A00011F0800F14BF03F1100103F5A87118442A
:1051B0004FF0000515BF012300230919091914BF79
:1051C000437480F851318D700A7094F89032012B3D
:1051D0000BD00123206884F8903200F0A2FA284610
:1051E00084F8905238BD0120FCE70220FAE710B5A0
:1051F000282411F0800F1BBF01F0070104FB010000
:1052000004FB0100103008BF00F5A87099B21AB96C
:105210000273C180002010BD012283600273F9E790
:1052200084B004A800E90E00002004B070470346D3
:105230004FF43F420020A3F84400A3F840207047F9
:10524000B0F8403023F47C535B045B0CA0F8403092
:1052500000207047002070471FB5044604A800E9ED
:105260000E0000200123A4F84030A4F84000A4F868
:105270004400A4F8500004B010BD0000F0B50A7856
:10528000CD7830F82240034624F4EC4424F0700436
:105290002404240C032D03D8DFE805F041494745D9
:1052A000012048F28006344323F8224033F822409C
:1052B0009F4FA4B23C401443344323F822400C7B5C
:1052C00003EB021C002C40F08D80CC884E786408E3
:1052D00064007EB3B3F8501089B26144A1F8004471
:1052E00033F82210490609D533F8221089B2394023
:1052F00041F4004141F0C00123F8221033F822109C
:105300008C4C89B2012D01EA040101D081F0200109
:1053100041F4004141F0800123F822104CE028467E
:1053200044F40074BDE744F4C0640020B9E744F4D9
:105330008064FAE7B3F850500969ADB26544A5F846
:105340000844B3F850403E29A4B26444B4F80C5465
:10535000C5F30905A4F80C542FD94D09CE06B4F8AD
:105360000C1408BF05F1FF3589B241EA85216FEAC7
:1053700041416FEA514189B2A4F80C1433F822106C
:105380004F040DD533F8221021F4E04121F07001D3
:105390000904090C41F4404141F0800123F8221036
:1053A000654CC2B91A8892B2224082F4405242F44B
:1053B000004242F080021A80F0BD11B9B4F80C141A
:1053C000D5E74D08C907B4F80C1448BF013589B2B8
:1053D00041EA8521CFE733F8221089B2214081F4D8
:1053E000005195E7022D33F822405BD1A4B23C4036
:1053F00044F4014444F0800423F82240B3F85040C0
:105400000E89A4B2760864447600A4F800644E893C
:10541000B3F850407608A4B264447600A4F8086457
:105420004978002948D133F822104E040DD533F8BD
:10543000221021F4E04121F070010904090C41F42B
:10544000404141F0800123F8221033F822104D062C
:105450000DD533F8221021F4E04121F07001090448
:10546000090C41F4004141F0C00123F8221048F238
:10547000800433F8221021F4804121F070010904E6
:10548000090C81F44051214323F8221033F82210F3
:1054900021F4E04121F040010904090C0C4323F8F8
:1054A000224089E724F4E24424F070042404240C0C
:1054B000264323F82260A1E733F822104C040DD5CF
:1054C00033F8221021F4E04121F070010904090CA5
:1054D00041F4404141F0800123F8221033F82210BA
:1054E00049060DD533F8221021F4E04121F0700176
:1054F0000904090C41F4004141F0C00123F82210D5
:1055000033F822100B4C89B22140012D18BF81F0D5
:10551000200141F4004141F0800123F8221033F8CA
:10552000221021F4804121F070010904090CEFE6FA
:105530008F8FFFFFBF8FFFFF8FBFFFFF4A780B7872
:10554000097BD9BB0AB330F8232051060DD530F8BA
:10555000232022F4E04222F070021204120C42F4E2
:10556000004242F0C00220F8232030F8232022F429
:10557000E04222F040021204120C42F4004242F0D7
:10558000800220F823200020704730F823205204A6
:105590000DD530F8232022F4E04222F070021204EC
:1055A000120C42F4404242F0800220F8232030F8EE
:1055B000232022F4804222F07002DCE7002A4AD144
:1055C00030F8232051040DD530F8232022F4E04296
:1055D00022F070021204120C42F4404242F08002A7
:1055E00020F8232030F8232052060DD530F8232050
:1055F00022F4E04222F070021204120C42F4004243
:1056000042F0C00220F8232048F2800130F8232025
:1056100022F4E04222F070021204120C42F4004222
:1056200042F0C00220F8232030F8232022F48042E8
:1056300022F070021204120C0A4320F8232030F8E2
:10564000232022F4E04222F040021204120C114303
:1056500020F8231097E730F8232051040DD530F8B7
:10566000232022F4E04222F070021204120C42F4D1
:10567000404242F0800220F8232030F823205206D6
:105680000DD530F8232022F4E04222F070021204FB
:10569000120C42F4004242F0C00220F8232048F2EB
:1056A000800130F8232022F4E04222F0700212043C
:1056B000120C42F4404242F0800220F8232030F8DD
:1056C000232022F4E04222F040021204120C0A438A
:1056D00020F8232030F8232022F4804222F07002A8
:1056E000B3E74B780A788BB130F8223023F4E043EB
:1056F00023F040031B041B0C83F0100343F400430E
:1057000043F0800320F822300020704730F8223028
:1057100023F4804323F070031B041B0C83F4805399
:10572000ECE70B7B3BBB4B780A7833B330F8223085
:105730005B060DD530F8223023F4E04323F07003EC
:105740001B041B0C43F4004343F0C00320F8223039
:10575000CB78012B0FD030F8223023F4E04323F034
:1057600040031B041B0C83F0200343F4004343F06D
:10577000800320F822300020704730F822305B048C
:105780000DD530F8223023F4E04323F070031B04DE
:105790001B0C43F4404343F0800320F8223030F8E0
:1057A000223023F4804323F070031B041B0C83F48A
:1057B0004053DAE711B98023A0F84C30002070473D
:1057C0000020704700207047B0F8440080B2704756
:1057D0000020704700EB4200013300F580605B0859
:1057E00000EB8303834200D1704731F8022B20F88D
:1057F000042BF7E72DE9F0474B780446012B0D46C3
:105800000A7B40F01881D1F810908F6949694F45A3
:1058100028BF4F460ABBBFB2EA883B46FFF7DAFF14
:10582000B4F85000297880B204F20442090102441D
:105830008F522A7834F8223023F4E04323F04003D7
:105840001B041B0C83F03003002043F4004343F09F
:10585000800324F82230BDE8F087EB7895F800E06B
:10586000022B2E6A4FEA0E1C40F0D080B14530F872
:105870002E2080F0B48022F4E04222F07002120464
:10588000120C42F4014242F0800220F82E2030F83F
:105890002E80B0F850E0F61B18F040082E6201EBA5
:1058A000070ABBB21FFA8EFE4ED000F20C427244C1
:1058B00022F80C306A89FFF78DFFB14536BFF31B24
:1058C00000233E466A782B62C5F814A0B3B27ABBB7
:1058D000B4F85020287892B204F204410001114437
:1058E000425A3E2EC2F30902425214D9425A770953
:1058F000F60608BF07F1FF3792B242EA87226FEA45
:1059000042426FEA524292B242522A89514620469E
:10591000FFF760FF8DE70EB9425AF0E7F207425AEF
:105920004FEA560748BF013792B242EA8722EAE7B8
:10593000012AEAD1B4F85000297880B204F2044276
:10594000090102448B52E0E700F20442724422F85B
:105950000C302A89FFF73EFFB14536BFF31B4346A3
:105960003E466A782B62C5F814A0B3B25ABBB4F8AD
:105970005020287892B204F20C4100011144425A9E
:105980003E2EC2F30902425210D9425A7709F60656
:1059900008BF07F1FF3792B242EA87226FEA42421C
:1059A0006FEA524292B242526A89AFE70EB9425A46
:1059B000F4E7F207425A4FEA560748BF013792B25E
:1059C00042EA8722EEE7012AEED1B4F850002978A6
:1059D00080B204F20C42090102448B52E4E722F443
:1059E000E24222F070021204120C42F4004242F031
:1059F000800220F82E20B0F8503000F204429BB212
:105A00001A44B3B222F80C302A8981E7F61B30F829
:105A10002E202E62B0F85060BBB25706B6B206D543
:105A200000F20C42324422F80C306A8970E700F22E
:105A300004423244E6E7002A3BD18B690969B0F899
:105A400050008B4284BF5A1A0B462978AA6180B253
:105A500004F20C4209010244885A3E2BC0F30900AB
:105A600088521AD95809DE068B5A08BF00F1FF3058
:105A70009BB243EA80236FEA43436FEA53439BB2EE
:105A80008B522A7834F8223023F4804323F07003B9
:105A90001B041B0C83F44053D6E60BB98B5AEAE780
:105AA0005808DB078B5A48BF01309BB243EA80237A
:105AB000E5E7CA78022A70D1002B38D1B0F850201F
:105AC0000B7892B200F204401B011044C25AC2F398
:105AD0000902C2520A693E2A46D9C15A5609D70656
:105AE00008BF06F1FF3689B241EA86216FEA4141DB
:105AF0006FEA514189B2C152B4F8500004F20C412E
:105B000080B20144C85A3E2AC0F30900C85238D9AD
:105B10005009D706CA5A08BF00F1FF3092B242EAD4
:105B200080226FEA42426FEA524292B2CA52EB6955
:105B3000002BA6D044F240032A7834F8221003EA5E
:105B400001008B4301D000289BD134F8223023F48C
:105B5000E04323F070031B041B0C43F4004343F0A9
:105B6000C00324F822308CE70AB9C15ABEE7D10736
:105B7000C15A4FEA520648BF013689B241EA86212E
:105B8000B8E70AB9CA5ACCE75008D607CA5A48BF7C
:105B9000013092B242EA8022C7E7012A5DD18A69C8
:105BA00009698A4294BF0020501AA86188BF0A463A
:105BB000002B7FF466AFB4F850102B7889B204F252
:105BC00004401B010844C15A3E2AC1F30901C152D5
:105BD0002BD9D106C15A4FEA521608BF06F1FF363B
:105BE00089B241EA86216FEA41416FEA514189B2A7
:105BF000C152B4F8500004F20C4180B20144C85ABA
:105C00003E2AC0F30900C8521BD95009D606CA5A09
:105C100008BF00F1FF3092B242EA80226FEA4242AE
:105C20006FEA524292B2CA522BE70AB9C15ADAE776
:105C3000C15A5608D70748BF013689B241EA8621C2
:105C4000D5E70AB9CA5AE9E75008D207CA5A48BF85
:105C5000013092B242EA8022E4E70120FBE500EB4A
:105C60004200F0B500F580605D080C4607462E4600
:105C7000023436B9DB0744BF30F8253001F815305F
:105C8000F0BD37F8042B013E92B204F8022C120A40
:105C900004F8012CECE70000074A08B5136803205C
:105CA00043F01003136000F01BFE0F2004F01EFFF2
:105CB00004F0E6FE002008BD00200240034A044B29
:105CC00011681B780B441360704700BF0802002066
:105CD00004000020014B1868704700BF0802002034
:105CE00038B50446FFF7F6FF0546631C1EBF044B9C
:105CF0001B78E418FFF7EEFF431BA342FAD338BD2D
:105D0000040000202DE9F341054638B30368DB07A2
:105D100010D42B689F075ED42B68190700F195807B
:105D20002B685A0700F1C180EB69002B40F02C81F1
:105D3000002029E0904C636803F00C03042B07D08B
:105D4000636803F00C03082B0AD16368DE0307D5F0
:105D500023689C03DDD56B68002BDAD1012013E0AA
:105D60006B68B3F5803F12D1236843F4803323601E
:105D7000FFF7B0FF064623689803CAD4FFF7AAFFCF
:105D8000801B6428F7D9032002B0BDE8F0819BB9DD
:105D9000236823F480332360236823F48023236063
:105DA000FFF798FF064623689903B2D5FFF792FFE5
:105DB000801B6428F7D9E6E7B3F5A02F236803D149
:105DC00043F480232360CFE723F4803323602368E8
:105DD00023F48023CBE7684C636813F00C0F07D0E3
:105DE000636803F00C03082B10D16368DA030DD449
:105DF00023689B0702D52B69012BAFD123686A6901
:105E000023F0F80343EAC203236085E72A695B4B6A
:105E10006AB101221A60FFF75DFF064623689F07FB
:105E2000ECD4FFF757FF801B0228F7D9ABE71A60C5
:105E3000FFF750FF0646236898077FF56DAFFFF721
:105E400049FF801B0228F6D99DE7AA694A4E4B4BB1
:105E5000E2B10122C3F88024FFF73CFF0446736AD5
:105E60009B070DD54FF4FA52454B1B68B3FBF2F379
:105E7000019300BF019B5A1E0192002BF9D14FE7FD
:105E8000FFF728FF001B0228E9D97CE7C3F880242C
:105E9000FFF720FF0446736A9F077FF541AFFFF7C6
:105EA00019FF001B0228F6D96DE7334CE369D800CF
:105EB00024D40127E36943F08053E361E36903F0ED
:105EC00080530093009B2F4E3368D90518D5EB689B
:105ED000012B26D1236A43F001032362FFF7FAFE68
:105EE00041F288380646236A9B073FD5002F3FF4CE
:105EF0001BAFE36923F08053E36115E70027E2E776
:105F0000336843F480733360FFF7E4FE8046336800
:105F1000DA05DCD4FFF7DEFEA0EB08006428F6D932
:105F200031E7ABB9236A41F2883823F001032362D9
:105F3000236A23F004032362FFF7CCFE0646236A9C
:105F40009807D3D5FFF7C6FE801B4045F7D91AE75F
:105F5000052B236A03D143F004032362BAE723F03D
:105F600001032362236A23F00403B6E7FFF7B2FEBE
:105F7000801B4045B7D906E70010024000004242AE
:105F800000000020007000402A4C626802F00C0201
:105F9000082A3ED00022022B274B1A662CD1FFF78D
:105FA00099FE06462368990120D42B6AB3F5803FF9
:105FB00005D16268A96822F400320A436260696A06
:105FC00062680B4322F474121343012263601A4B7C
:105FD0001A66FFF77FFE054623689A013FF5A8AED3
:105FE000FFF778FE401B0228F6D9CCE6FFF772FED9
:105FF000801B0228D6D9C6E6FFF76CFE054623684B
:106000009B017FF595AEFFF765FE401B0228F6D990
:10601000B9E6012B3FF4A2AE60682B6A00F480322F
:106020009A427FF49BAE6B6A00F47010C01A18BFDE
:106030000120A9E600100240000042420D4A5368C8
:1060400003F00C01082912D10B48C3F38341DB0391
:10605000405C09D55368094AC3F340435043084A9A
:10606000D35CB0FBF3F07047064B584370470348CE
:10607000704700BF001002406E17010800127A003E
:106080006C17010800093D002DE9F0410D4604465A
:1060900010B90120BDE8F081444A136803F00703FA
:1060A0008B4228D321688E0730D4CA0743D43F4A95
:1060B000136803F00703AB4265D822683C4D12F029
:1060C000040F6CD1130706D56B68226923F4605363
:1060D00043EAC2036B60FFF7B1FF6B68354AC3F355
:1060E0000313D35CD840344B1860344B186804F069
:1060F000FDFC0020CEE7136823F007030B43136079
:10610000136803F007038B42C3D1CBE7284B11F090
:10611000040F1EBF5A6842F4E0625A60080742BF8B
:106120005A6842F460525A605A68A06822F0F0023D
:1061300002435A60B9E762681D4E012A33681AD1DA
:1061400013F4003FA5D0736841F2883823F00303AD
:1061500013437360FFF7BEFD07467368626803F080
:106160000C03B3EB820FA2D0FFF7B4FDC01B404578
:10617000F3D903208EE7022A02D113F0007FE1E772
:1061800013F0020FDEE7136823F007032B431360BD
:10619000136803F00703AB427FF47BAF8DE76B68B6
:1061A000E16823F4E0630B436B608BE7002002405F
:1061B000001002405C1701080000002008000020C9
:1061C000044B054A5B68C3F30223D35C034A10689F
:1061D000D84070470010024054170108000000200A
:1061E000044B054A5B68C3F3C223D35C034A1068BF
:1061F000D8407047001002405417010800000020EA
:106200000F2303600B4B5A6802F0030242605A6886
:1062100002F0F00282605A6802F4E062C2605B68D9
:10622000DB0803F4E0630361034B1B6803F007031F
:106230000B607047001002400020024003682DE907
:10624000F3410546D80721D5364CE369D9002BD454
:106250000126E36943F08053E361E36903F080536F
:106260000193019B304F3B68DA051FD5236A6A68AA
:1062700013F440732ED1236A6A6823F440731343E6
:1062800023621EB1E36923F08053E3612A6891071A
:1062900006D52449A8684B6823F4404303434B6068
:1062A000D30636D4002012E00026DBE73B6843F437
:1062B00080733B60FFF70EFD80463B68DB05D5D45D
:1062C000FFF708FDA0EB08006428F6D9032002B010
:1062D000BDE8F08102F440729A42CCD00120134A0A
:1062E000236AC2F84004002023F44071DF07C2F89B
:1062F00040042162BFD5FFF7EDFC41F28838074624
:10630000236A9807B7D4FFF7E5FCC01B4045F7D9CF
:10631000DCE7044A6969536823F480030B43536044
:10632000C0E700BF00100240007000400000424281
:106330002DE9F74F00244FF00F0E2646DFF89CC1E1
:10634000674B00F104080A6832FA06F502D103B07F
:10635000BDE8F08F012505FA06F702EA070537EADE
:1063600002027ED14A68032A07D8013A022A00F2C3
:106370008C80DFE802F09A9FA500122A00F09D8031
:1063800071D8112A00F09380FF2D94BF8146C14639
:106390004FEA8602D9F8007088BF203A0EFA02FA56
:1063A00027EA0A0704FA02F21743C9F80070D1F885
:1063B000049019F0805F54D0DCF8182026F0030711
:1063C00042F00102CCF81820DCF8182007F18047D1
:1063D00002F00102019207F5803706F0030A019AE4
:1063E0004FEA8A0ABA680EFA0AFB22EA0B0B3D4A08
:1063F000904269D002F58062904267D002F58062D7
:10640000904265D002F58062904263D002F58062CE
:10641000904261D002F58062904214BF06220522AC
:1064200002FA0AF242EA0B02BA609A6819F4801F73
:1064300014BF2A43AA439A60DA6819F4001F14BFF4
:106440002A43AA43DA605A6819F4003F14BF2A436A
:10645000AA435A601A6819F4803F14BF2A43AA431A
:106460001A6001366FE7DFF880904A450DD015D8E5
:10647000A9F580194A4508D009F570294A4504D084
:10648000A9F580194A457FF47FAF8A68D2B1012A05
:106490004FF008040CBF0761476175E7DFF84C90C7
:1064A0004A45F2D009F58039ECE7CC686CE7CC6856
:1064B000043469E7CC68083466E7CC680C3463E7D9
:1064C000002461E704245FE70022A9E70122A7E78F
:1064D0000222A5E70322A3E70422A1E7001002405D
:1064E00000040140000801400000221000003110AB
:1064F0008368194214BF0120002070470AB101616E
:1065000070470904FBE7C36801EA030221EA0301BB
:1065100041EA024101617047034610B580B301684A
:10652000184A1420914224D8174A0A44B2FBF0F2C8
:1065300016489200C3E90F02022283F82120D3E912
:1065400001242243DC68086822431C696FF30D10A4
:1065500022435C6922439C692243DC692243024353
:106560000A6000200122986383F8200083F821202C
:1065700010BD074A0A44B2FBF0F206489200D9E780
:106580000120F5E707040240F8FFFDBF00000240CC
:10659000F8FBFDBF00040240F0B590F82040012C4C
:1065A00034D0012480F8204090F82140012CE5B23D
:1065B0004FF0000428D1022680F82160846304682B
:1065C000266826F001062660D0E90F67BD40756099
:1065D00063604368102BC36A0BBFA260A160E160D7
:1065E000E2604BB1236843F00E0300202360236870
:1065F00043F001032360F0BD236823F0040323600C
:10660000236843F00A03F0E780F820400220F2E715
:1066100090F821200346022A06D00422826301203A
:10662000002283F8202070470268C06B116821F0B7
:106630000E011160116821F00101116001211A6C35
:1066400001FA02F24260002083F82110E8E700001E
:1066500008B590F82130022B03D004238363012076
:1066600008BD03681A6822F00E021A601A6822F048
:1066700001021A60284A934224D902F562729342B9
:1066800019D01432934218D01432934217D01432D6
:10669000934214BF4FF480334FF480531F4A53602A
:1066A000012380F82130002380F82030436B03B1B0
:1066B00098470020D4E70123F0E71023EEE74FF4DA
:1066C0008073EBE716498B4216D014318B4215D0FC
:1066D00014318B4214D014318B4214D014318B42BC
:1066E00014D014318B4214D0934214BF4FF4803332
:1066F0004FF080730B4AD2E70123FBE71023F9E741
:106700004FF48073F6E74FF48053F3E74FF4803390
:10671000F0E74FF48013EDE78000024000040240F0
:10672000080002400000024070B40425C66B026CF1
:106730003468036895402542196855D04D0753D5F4
:106740001A6896065EBF1A6822F004021A60604A50
:1067500093421FD902F56272934214D014329342CD
:1067600013D01432934212D01432934214BF4FF418
:1067700080234FF48043574A5360C36A002B00F0D4
:10678000A58070BC18470423F5E74023F3E74FF4D6
:106790008063F0E750498B4216D014318B4215D0FC
:1067A00014318B4214D014318B4214D014318B42EB
:1067B00014D014318B4214D0934214BF4FF4802371
:1067C0004FF08063454AD7E70423FBE74023F9E70E
:1067D0004FF48063F6E74FF48043F3E74FF48023F0
:1067E000F0E74FF48003EDE702259540254257D0AE
:1067F0008D0755D51A68940606D41A6822F00A0245
:106800001A60012280F82120314A93421ED902F5F4
:106810006272934213D01432934212D014329342D4
:1068200011D01432934214BF4FF400334FF400538D
:10683000284A5360002380F82030836A9EE70223B1
:10684000F6E72023F4E74FF40073F1E722498B4287
:1068500016D014318B4215D014318B4214D0143120
:106860008B4214D014318B4214D014318B4214D08B
:10687000934214BF4FF400334FF00073174AD8E728
:106880000223FBE72023F9E74FF40073F6E74FF408
:106890000053F3E74FF40033F0E74FF40013EDE754
:1068A00008259540254211D009070FD5196821F018
:1068B0000E011960012303FA02F27260836380F80B
:1068C0002130002380F82030036B57E770BC7047FD
:1068D0008000024000040240080002400000024024
:1068E00007490302CA6803F4E06322F4E062120479
:1068F000120C134343F0BF6343F40033CB60704783
:1069000000ED00E0154B30B5DC68C4F30224C4F19F
:106910000703251D042B28BF0423062D4FF0FF3548
:1069200094BF0024033C05FA03F321EA0303A540C6
:1069300022EA0502A340002843EA0203ACBF00F1AB
:106940006040074A4FEA0313DBB2ABBF00F561407A
:1069500000F00F0080F80033135430BD00ED00E06C
:1069600014ED00E0002807DB01234109034A00F091
:106970001F00834042F82130704700BF00E100E073
:106980002DE9F3471F46894690460446FFF7A2F9D2
:106990000A9D3D442D1AFFF79DF98246254B1E683E
:1069A000C6F3CB366E4301962268936839EA030337
:1069B0000CBF01230023434501D100202EE07B1CA6
:1069C000F3D0FFF787F9A0EB0A00A84229D3236888
:1069D0005A6822F0E0025A606268B2F5827F0AD1FA
:1069E000A268B2F5004F02D0B2F5806F03D11A68E9
:1069F00022F040021A60A26AB2F5005F07D11A685D
:106A000022F400521A601A6842F400521A600123FC
:106A100084F851300023032084F8503002B0BDE8E0
:106A2000F087019A019B002A03F1FF3308BF154646
:106A30000193B9E70000002073B50B4600920D46A4
:106A40001646022101220446FFF79AFF024628B1AA
:106A5000636D032043F02003636507E02B4680212C
:106A600020460096FFF78CFF0028F1D102B070BDE0
:106A700037B50B4641680446B1F5827F18D181686D
:106A8000B1F5004F02D0B1F5806F11D12568B1F595
:106A9000806F286820F04000286009D10092012111
:106AA00000222046FFF76CFF30B9002003B030BD54
:106AB000009280210022F4E7636D032043F020035D
:106AC0006365F3E710B50446002851D0436A002BF4
:106AD0004AD14268B2F5827F00D0C3610023A3622D
:106AE00094F8513003F0FF0223B9204684F8502077
:106AF00003F0EAFE0223226884F851301368A0688C
:106B000023F040031360636800F4044003F48273CD
:106B10000343E068A16900F400600343206900F0CA
:106B200002000343606900F00100034301F40070B8
:106B30000343E069090C00F038000343206A01F0C8
:106B4000040100F080000343A06A00F400500343F6
:106B500013605160D369002023F40063D3610123E3
:106B6000606584F8513010BD0023C0E90433B5E7F7
:106B70000120F8E72DE9F74304461F460D469046ED
:106B8000FFF7A8F894F851308146012BD8B240F0B5
:106B90009F80002D74D0B8F1000F71D094F8503060
:106BA000012B00F09580032384F8513000236365A6
:106BB000C4E91033A4F83680A363A387E387A368EE
:106BC0002668B3F5004F84F850002563A4F834809C
:106BD00007D1336823F040033360336843F48043C4
:106BE00033603368E2685B065EBF336843F040039E
:106BF0003360B2F5006F636845D113B1B8F1010F8E
:106C000007D135F8023BF3602563E38E013B9BB26D
:106C1000E386E38E9BB2D3B94A4639462046FFF756
:106C20000BFF002851D1A36833B901932368DA68B8
:106C300001929B680193019B012384F8513000234A
:106C4000606D84F85030C01A18BF012018E0226827
:106C50009368980705D5236B33F8021BD160236333
:106C6000D3E7FFF737F8A0EB0900B842D1D3791C7E
:106C7000CFD0012384F851300023032084F8503012
:106C800003B0BDE8F08313B1B8F1010F08D12B7840
:106C90003373236B01332363E38E013B9BB2E386A3
:106CA000E38E9BB2002BB7D023689A68920703D576
:106CB000226B12781A73ECE7FFF70CF8A0EB0900CF
:106CC000B842EDD37B1CEBD0D3E720236365AAE762
:106CD0000220D5E72DE9F74304460D4691461E46AE
:106CE000DDF82880FEF7F6FF94F851300746012BB7
:106CF0006268D9B20AD0B2F5827F40F0E580A3681D
:106D0000002B40F0E180042940F0DE80002D4BD0C4
:106D1000B9F1000F48D0002E46D094F85030012B26
:106D200000F0D280012384F8503094F85130C4F838
:106D30003890042B1CBF052384F851300023636571
:106D4000C4E910332368E687E6861968A6874906F2
:106D500058BF1968256358BF41F04001A68658BF47
:106D60001960E168B1F5006F55D10AB1012E07D164
:106D700035F8022BDA60E38E2563013B9BB2E38694
:106D80000125E38E9BB28BB9E38F9BB273B93A4670
:106D900041462046FFF750FE002800F08180202366
:106DA0006365002384F85030012031E021688B684E
:106DB0009A070DD5E38E9BB253B145B1236B33F8DF
:106DC000022BCA602363E38E013B9BB2E38600255E
:106DD0008A6812F001020CD0E38F9BB24BB11546CA
:106DE000C968A36B23F8021BA363E38F013B9BB22B
:106DF000E387FEF76FFFC01B4045C2D3B8F1FF3FEA
:106E0000BFD0012384F851300023032084F8503090
:106E100003B0BDE8F0830AB1012E08D12A781A73B5
:106E2000236B01332363E38E013B9BB2E386012591
:106E30002DE0226893689B070ED5E38E9BB25BB171
:106E40004DB1236B1B781373236B01332363E38EE4
:106E5000013B9BB2E38600252268916811F0010195
:106E60000DD0E38F9BB253B10D46D268A36B1A705D
:106E7000A36B0133A363E38F013B9BB2E387FEF770
:106E800029FFC01B404502D3B8F1FF3FB9D1E38EC3
:106E90009BB2002BCDD1E38F9BB2002BC9D176E7FB
:106EA000A36833B901932368DA6801929B68019360
:106EB000019B012384F851300023606D84F8503029
:106EC000C01A18BF0120A3E70220A1E72DE9F7436C
:106ED0001E4690F851300446012B89461746DDB214
:106EE00004D00225284603B0BDE8F0834368B3F51B
:106EF000827F0BD183684BB9042380F8513013464D
:106F000000960A46FFF7E6FE0546EBE7FEF7E2FECF
:106F10008046B9F1000FE5D0002FE3D094F850304F
:106F2000012BDED00123002584F850300423A26811
:106F300084F85130B2F5004F6565C4E91055E78714
:106F40002368C4F83890A7872563A586E58607D10E
:106F50001A6822F040021A601A6822F480421A600D
:106F60001A6855065EBF1A6842F040021A60E3686C
:106F7000F3B1E38F9BB2FBB123689A68D2073CD58B
:106F8000DA68A36B23F8022BA363E38F013B9BB268
:106F9000E387EEE723689A68D0071ED51B7BA26BB8
:106FA0001370A36B0133A363E38F013B9BB2E387B1
:106FB000E38F9BB2002BEDD1424631462046FFF7CE
:106FC00057FD18BB012384F851300023656D84F808
:106FD0005030ED1A18BF012584E7FEF77BFEA0EBC9
:106FE0000800B042E4D3711CE2D0012384F8513090
:106FF0000023032584F8503074E7FEF76BFEA0EB06
:107000000800B042B5D3731CB3D0EEE7202363650C
:10701000D8E7026802F10C0353E8003F23F49073B1
:107020000C3242E8003102680029F2D102F1140367
:1070300053E8003F23F0010302F1140C4CE8003147
:107040000029F3D1036B012B0BD102F10C0353E8A0
:10705000003F23F0100302F10C0C4CE80031002932
:10706000F3D1202380F842300023036370470000EF
:1070700010B504460368C1681A6922F440520A43F5
:107080001A6182680069D9680243606921F4B051CD
:1070900021F00C0102430A43DA605A69A16922F423
:1070A00040720A435A610E4A934215D1FFF798F88D
:1070B00019234343626820689200B3FBF2F3642211
:1070C000B3FBF2F102FB11331B013233B3FBF2F3DA
:1070D00003EB0113836010BDFFF772F8E8E700BF10
:1070E0000038014010B5044648B390F8413003F031
:1070F000FF021BB980F8402003F046FC24232268DD
:1071000084F84130D368204623F40053D360FFF75E
:10711000AFFF236800201A6922F490421A615A696D
:1071200022F02A025A61DA6842F40052DA6020231F
:10713000606484F8413084F84230606310BD0120FF
:10714000FCE790F84130202B10D189B182B1C28484
:1071500082840023212201620168436480F8412077
:10716000CA68184642F08002CA6070470220704721
:10717000012070477047704708B5406A03685A6934
:1071800090F84110212912D1120610D50022C28494
:1071900003F10C0252E8002F22F0C00203F10C0CA4
:1071A0004CE800210029F3D1202280F841205B69BE
:1071B00090F84220222A05D15B0603D50023C3851F
:1071C000FFF727FF436C43F01003436404F004F817
:1071D00008BD08B50023406AC385C38403F0FCFFE3
:1071E00008BD704710B50446226802F10C0353E84D
:1071F000003F23F490730C3242E8003123680029E9
:10720000F2D103F1140252E8002F22F0010203F13F
:10721000140040E800210029F3D1226B012A0BD190
:1072200003F10C0252E8002F22F0100203F10C00CF
:1072300040E800210029F3D15A6912F0400220D021
:1072400003F1140252E8002F22F0400203F114006F
:1072500040E800210029F3D1E06B48B10C4B4363B7
:10726000FFF7F6F910B1E06B436B9847002010BDB3
:107270002023E08584F8423020632046FFF7B1FFE9
:10728000F4E72023E28584F842302263F5E700BF6B
:107290009572000808B520220023406AC38580F853
:1072A00042200363FFF79DFF08BD08B50123406A34
:1072B0004363036B012B04D1818D490803F038FF30
:1072C00008BDFFF758FFFBE708B503461B68406A97
:1072D0001B6813F0200337D1C385026802F10C0349
:1072E00053E8003F23F480730C3242E80031036816
:1072F0000029F2D103F1140252E8002F22F001021A
:1073000003F1140C4CE800210029F3D103F114021D
:1073100052E8002F22F0400203F1140C4CE8002147
:107320000029F3D1202280F84220026B012A0BD1E0
:1073300003F10C0252E8002F22F0100203F10C0CB2
:107340004CE800210029F3D100234363036B012B98
:1073500003D1818D03F0ECFE08BDFFF70BFFFBE7C7
:1073600090F8423007B5222B42D181680268B1F50E
:10737000805F836A3FD1016900293FD15268C2F31F
:10738000080223F8022B8362C38D013B9BB2C385A5
:10739000002B2DD10268D16821F02001D160D16885
:1073A00021F48071D160516921F0010151612022E5
:1073B00080F842204363026B012A026828D10363EC
:1073C00002F10C0353E8003F23F0100302F10C0C10
:1073D0004CE800310029F3D11368DB0605D5019193
:1073E0001368019353680193019B818D03F0A0FE04
:1073F00003B05DF804FB39B9016929B95268D2B20A
:107400001A70836A0133BEE7526802F07F02F7E721
:10741000FFF7B0FEECE70000036873B51A68044696
:107420001607D9685D6908D1960668D58D0666D5B8
:1074300002B0BDE87040FFF793BF05F0010001F412
:10744000907505435BD0D60705D5CD0542BF636C6B
:1074500043F001036364530704D518B1636C43F030
:1074600002036364960704D518B1636C43F0040308
:107470006364150707D501F0200303431EBF636C47
:1074800043F008036364636C002B32D0920604D58A
:107490008B0602D52046FFF763FF266820467369F6
:1074A000626C03F0400302F0080253EA020522D0A6
:1074B000FFF7AFFD73695E0618D5226802F1140369
:1074C00053E8003F23F04003143242E80031002922
:1074D000F3D1E06B50B1744B4363FFF7B9F840B19F
:1074E000E06B436B02B0BDE870401847204603F0E4
:1074F00073FE02B070BD03F06FFE6564F9E7206BA8
:10750000012840F09480D50640F19180C80640F1F2
:107510008E80002201921A6801925A680192019AA3
:107520005A6952064DD5E16B0A68526892B2002A38
:10753000DFD0A08D9042DCD9E2858A69202A36D03E
:1075400003F10C0252E8002F22F4807203F10C00C8
:1075500040E800210029F3D103F1140252E8002F82
:1075600022F0010203F1140040E800210029F3D1C8
:1075700003F1140252E8002F22F0400203F114003C
:1075800040E800210029F3D1202284F84220216321
:1075900003F10C0252E8002F22F0100203F10C005C
:1075A00040E800210029F3D1E06BFFF731F8022316
:1075B0006363E38DA18DC91A89B2204603F0B8FD3B
:1075C00097E7E28DE08DA18D80B292B2002890D035
:1075D000891A89B200298CD003F10C0252E8002FDD
:1075E00022F4907203F10C0545E800200028F3D145
:1075F00003F1140252E8002F22F0010203F11405F6
:1076000045E800200028F3D1202284F8422020639E
:1076100003F10C0252E8002F22F0100203F10C05D6
:1076200045E800200028F3D102236363C5E716066E
:1076300028D50D0626D594F84120212A7FF459AF8C
:10764000A168226AB1F5805F17D12169A9B932F822
:10765000021BC1F3080159602262E28C013A92B226
:10766000E284002A7FF445AFDA6822F08002DA6013
:10767000DA6842F04002DA603BE7511C216212787E
:107680005A60EAE750067FF534AF4A067FF531AF1E
:10769000DA68204622F04002DA60202384F8413084
:1076A00003F082FD25E700BFD371000873B51346D0
:1076B00082850025222204468162456480F84220AA
:1076C000C06B1D4A266882621C4AC2621C4AC0E91D
:1076D0000C250A46311DFEF75FFF236801951A68E5
:1076E00001925A680192019A22695AB103F10C027F
:1076F00052E8002F42F4807203F10C0040E80021B0
:107700000029F3D103F1140252E8002F42F00102E4
:1077100003F1140040E800210029F3D103F1140221
:1077200052E8002F42F0400203F1140141E800202A
:107730000028F3D102B070BDC9720008AB72000816
:107740007971000873B590F842600446202E22D16A
:1077500011B9012002B070BD002AFAD00123002522
:1077600003634563FFF7A2FF236B012BF1D122686E
:1077700001951368019353680193019B02F10C0377
:1077800053E8003F43F0100302F10C0444E80031D9
:107790000029F3D1DEE70220DCE708B580B1D0F89C
:1077A000B43213B10023C0F8B43209B1C0F8B0123A
:1077B0000123027080F89C3202F0FAFA002008BD22
:1077C0000220FCE719B1C0F8B41200207047022073
:1077D000704708B502F02CFB002008BD08B5D0F8B2
:1077E000B43233B11B689847003818BF01204000FD
:1077F00008BD0220FCE708B5D0F8B4325B689847B2
:10780000002008BD38B500F52A750446284600F06A
:1078100007FB012394F8A812C4F89432B4F8AE32EE
:10782000C4F8983201F01F03012B08D0022B0BD0B3
:107830007BB92946204600F0FBF8002038BD2946D8
:10784000204600F03DFAF8E72946204600F05CFAB1
:10785000F3E7204601F0800102F008FBEDE770B588
:107860000446164639BBD0F89422032A1CD1D0E92D
:10787000585295420BD9AD1AAA423146C0F8605110
:107880008CBFAAB292B200F01FFB002070BDD0F8EE
:10789000B4321B6923B190F89C22032A00D1984787
:1078A000204600F019FBF0E7052AEED1C4F8941247
:1078B00002F0DCFAE9E7D0F8B4329B692BB190F81A
:1078C0009C22032A01D19847DFE70220DEE7F8B5C2
:1078D000044613460F46002949D1D0F89422022AC3
:1078E0003AD1D0E90856B54211D9AD1B1946056207
:1078F000AAB200F0D4FA3B461A461946204602F0D6
:10790000EAFA94F8A032012B2DD00020F8BDC3690B
:10791000B3FBF6F506FB153565B99E420AD8D0F8DB
:107920009822934206D22A4600F0B9FA2B46C4F8B0
:107930009852E1E7D4F8B432DB682BB194F89C227A
:10794000032A01D1204698478021204602F08EFA72
:10795000204600F0CCFAD4E732F00403D1D18021E4
:1079600002F084FACDE7002384F8A032CDE7D0F806
:10797000B4325B692BB190F89C22032A01D198475D
:10798000C3E70220C2E7002270B504460125402665
:107990001146402302F055FA33468021002220464A
:1079A000C4F85851C4F8646102F04BFA0021D4F8CD
:1079B000B832A561666284F89C52C4F89412616082
:1079C000C4F8A41223B1D4F8B43220465B689847B7
:1079D000002070BD01740020704790F89C3280F840
:1079E0009D32042380F89C320020704790F89C322E
:1079F000042B04BF90F89D3280F89C320020704721
:107A000008B590F89C22032A04D1D0F8B432DB697F
:107A100003B19847002008BD10B50446802102F04C
:107A200025FA2046BDE81040002102F01FBA0000F0
:107A300037B50B78044603F06003202B0D4606D0C3
:107A4000402B04D063B12046FFF7E6FF05E0D4F8F1
:107A5000B432294620469B689847002003B030BDC9
:107A60004B78092BEFD801A252F823F06F7C000865
:107A7000A57C0008477A0008977C0008477A000830
:107A8000957B0008957A0008477A00083F7C00083B
:107A9000D77B00080023ADF806304B881A0A013A5C
:107AA000062AD0D801A151F822F000BFC97A0008F7
:107AB000ED7A0008077B0008477A0008477A00083B
:107AC0004B7B0008617B0008D0F8B0321B68207C3B
:107AD0000DF106019847BDF80620EB88002A54D026
:107AE000002B49D1204600F0F7F9B6E7027CD0F828
:107AF000B43232B99B6A0DF10600984702234370F5
:107B0000E9E7DB6AF7E7DBB2052B9CD8DFE803F097
:107B100003090D111519D0F8B0325B68002BD6D1CE
:107B200091E7D0F8B0329B68F8E7D0F8B032DB6864
:107B3000F4E7D0F8B0321B69F0E7D0F8B0325B69F7
:107B4000ECE7D0F8B0329B69E8E7037C002B7FF4C8
:107B50007AAFD0F8B4320DF106005B6B9847BAE704
:107B6000037C002B7FF46FAFD0F8B4320DF1060028
:107B70001B6B98470723C2E79A4228BF1A46014663
:107B80002046ADF8062000F07DF9EB88002B7FF44D
:107B900064AFA7E78B88002B7FF455AFCB88002B11
:107BA0007FF451AF4D887F2D3FF64DAF90F89C325A
:107BB000032B3FF448AFEDB2294680F89E5202F005
:107BC00078F9204600F088F91DB1022384F89C3230
:107BD00043E70123FAE78978384D012929703FF6F8
:107BE00032AF90F89C32022B08D0032B15D0FFF750
:107BF00013FF20462978FFF7FEFD2EE700293FF40A
:107C000071AF01210323416080F89C322046FFF7C9
:107C1000E5FD02287FF466AF15E731B90223416024
:107C200080F89C32FFF7E7FD5CE7416801293FF4EB
:107C300059AFC9B2FFF7DFFD29786160E6E7CA886E
:107C4000012A7FF400AF90F89C32022B0AD8002B57
:107C50003FF4F9AE0146002341F8083F204600F00A
:107C600011F9FAE6032B7FF4EEAE011DF6E790F86A
:107C70009C32013B022B3FF6E6AECA88022A7FF413
:107C8000E2AED0F8A4320146002B0CBF012303233F
:107C900041F80C3FE2E74B88012B7FF4DEAEC4F8DD
:107CA000A4321FE790F89C32013B022B3FF6CBAE8B
:107CB0004B88012B7FF4D1AE0023F0E70C020020AB
:107CC00038B50B78044603F060025B060D4601D51B
:107CD000402A15D194F89C32013B022B10D82B7905
:107CE000012B0DD8D4F8B43229469B68204698471A
:107CF000EB881BB910B9204600F0EEF8002038BD23
:107D00002046FFF789FEF9E738B50A78044602F005
:107D10006002202A0B468D8806D0402A04D05AB132
:107D20002046FFF779FE05E0D4F8B4221946204634
:107D300092689047002038BD5A78E9B2012A35D0C0
:107D4000032A21D0002AEBD190F89C32022B44D098
:107D5000032BE5D1142201F00F0315F0800F02FB75
:107D600003034BD09B69002BDAD0142501F07F036D
:107D700003FB0555802905444BD0204602F088F8C6
:107D800000284BD0012345E090F89C22022A1BD00A
:107D9000032AC5D15A882AB94A0603D0DB880BB911
:107DA00002F064F8204600F097F8C3E790F89C22B0
:107DB000022A09D0032AB3D15B88002BBAD14D0621
:107DC000F0D002F05CF8EDE74B06A9D002F04EF8D7
:107DD0008021204602F04AF8ACE74A06A0D12B06E3
:107DE0004FF000034FF002024CBF00F1140100F508
:107DF000AA710B60204600F045F89BE7D3F8583194
:107E0000002B8DD0142505FB010505F5AA75002969
:107E1000B3D100232B6002222946EBE72860FAE762
:107E20000B7803704B7843704B8843808B8883803A
:107E3000CB88C380704710B50446802102F016F845
:107E40002046BDE81040002102F010B870B50D4684
:107E50001646044670B1FCF7FFF9C3B201335B006C
:107E600033802B70032300206B700223013C14F835
:107E7000011F01B970BD5A1CE954D2B20233DBB202
